:020000040800F2
:10000000004000200D5900082703000829030008BC
:1000100000000000000000000000000000000000E0
:100020000000000000000000000000008521000822
:100030000000000000000000F12100082B03000870
:100040005D5900085D5900085D5900085D590008B8
:100050005D5900085D5900085D5900085D590008A8
:100060005D590008390300084903000861030008CE
:100070005D5900085D5900085D5900085D59000888
:100080005D5900085D5900085D5900085D59000878
:100090005D5900085D5900085D5900085D59000868
:1000A0005D5900085D5900085D5900085D59000858
:1000B0005D5900085D5900085D5900087903000882
:1000C00010B5064C2378002B07D1054B002B02D02E
:1000D000044800E000BF0123237010BDC0010020D0
:1000E00000000000E4610008044B10B5002B03D0B1
:1000F0000349044800E000BF10BDC04600000000F6
:10010000C4010020E4610008002243088B4274D33C
:1001100003098B425FD3030A8B4244D3030B8B4208
:1001200028D3030C8B420DD3FF22090212BA030C11
:100130008B4202D31212090265D0030B8B4219D3F2
:1001400000E0090AC30B8B4201D3CB03C01A524112
:10015000830B8B4201D38B03C01A5241430B8B425A
:1001600001D34B03C01A5241030B8B4201D30B0343
:10017000C01A5241C30A8B4201D3CB02C01A52416A
:10018000830A8B4201D38B02C01A5241430A8B422D
:1001900001D34B02C01A5241030A8B4201D30B0216
:1001A000C01A5241CDD2C3098B4201D3CB01C01A30
:1001B000524183098B4201D38B01C01A524143093A
:1001C0008B4201D34B01C01A524103098B4201D328
:1001D0000B01C01A5241C3088B4201D3CB00C01A95
:1001E000524183088B4201D38B00C01A524143080D
:1001F0008B4201D34B00C01A5241411A00D2014632
:10020000524110467047FFE701B5002000F006F8A4
:1002100002BDC0460029F7D076E770477047C04658
:1002200030B587B001F0E4FA01F016FD01F02CFEC4
:1002300001F002FE01F054FD01F096FD01F0C4FD55
:1002400001A8074903000A0032CA32C312CA12C306
:10025000002102F0B6FB034B186002F0ADFBFEE795
:10026000FC610008E8110020054B064A1A60BFF344
:100270004F8F054B054ADA60BFF34F8FC046FDE74D
:10028000F03F0020EFBEADDE00ED00E00400FA0517
:1002900030B59BB090200821C00501F093FB0128E8
:1002A00001D1FFF7E1FF02F0B7FB8021902001228E
:1002B000C900C00501F08DFB174B1B680020984753
:1002C000002804D1154B002B01D000E000BF3220E4
:1002D00002F091FB002002F0C5FE322002F08BFB01
:1002E00000240134E4B2012002F085FB9025ED05E5
:1002F0000821280001F066FB020080210902280085
:1003000001F067FB2200064901A805F05FFB6421AC
:1003100001A802F0A1FDE4E7C062000800000000AF
:100320003062000870477047FEE710B501F070FAC0
:1003300002F069FB10BD000010B5024801F090FB0F
:1003400010BDC0469C13002010B5034801F088FB87
:10035000024801F085FB10BDF41100205813002065
:1003600010B5034801F07CFB024801F079FB10BD99
:1003700014130020D012002010B5024804F056FCDF
:1003800010BDC0465016002000B583B00C4B9969D3
:1003900001221143996199690A400092009ADA6931
:1003A000802149050A43DA61DB690B400193019B17
:1003B000022000220321404201F0A8FB03B000BD4F
:1003C0000010024010B588B004001422002103A8D8
:1003D00005F0F3FA1E4B22689A4201D008B010BD16
:1003E0001C4B996980208000014399619A69024001
:1003F0000192019A5A69802189020A435A615B6914
:100400000B400293029B06230393033B0493713832
:10041000FF3803A9C00501F009FA0F480F4B03602C
:100420000023436083608022C260803202618022A8
:10043000D20042618361C36101F0E6FA002803D172
:10044000054BE3635C62C9E7FFF76CFFF8E7C04662
:1004500000240140001002409C13002008000240CC
:1004600030B58BB004001422002105A805F0A5FAD0
:100470002368544A934204D0534A93424FD00BB05E
:1004800030BD524D6A698021C9020A436A616B69B5
:100490000B400193019BC0230593AE3B0693113B98
:1004A000079303220892099305A9494801F0BEF970
:1004B000EA69802189030A43EA61EB690B400293F0
:1004C000029B4448444B03600023436083608022C6
:1004D000C260036143618361C36101F095FA002842
:1004E00017D13C4BE3635C623C483D4B03601023F7
:1004F0004360002383608022C260036143618361A3
:10050000C36101F081FA002806D1344BA3635C6219
:10051000B5E7FFF707FFE4E7FFF704FFF5E72B4D2B
:100520006A698021C9020A436A616B690B400393BF
:10053000039BC0231B01059312230693113B0793D2
:1005400003220892099305A9214801F06FF9EA698D
:100550008021C9030A43EA61EB690B400493049BC1
:100560002048214B03600023436083608022C260E7
:1005700003614361836180239B01C36101F044FAFD
:10058000002819D1174BE3635C621848184B0360CD
:1005900010234360002383608022C26003614361B3
:1005A000836180239B01C36101F02EFA002806D1EC
:1005B0000E4BA3635C6262E7FFF7B4FEE2E7FFF76E
:1005C000B1FEF5E700540040005800400010024022
:1005D000000400485813002030000240F4110020AD
:1005E0001C000240D01200205800024014130020CA
:1005F0004400024070B5041E00D1B0E0436C002BF3
:100600007DD0636CDB0600D5A3E021688B680422F3
:100610001A4000D09DE0636C524803400630FF3022
:1006200003436364886803230340012B6DD0CB68C8
:1006300018208343A0680343CB6021680B699B00AB
:100640009B08606803430B612168CB684648034000
:10065000CB60A3699B03E169C9030B43216A48038B
:100660000343606B012857D0802040010343E068BA
:1006700003432069022851D01343226B52001343D5
:10068000626A012A4CD0A26AC221FF318A4202D09A
:10069000E16A0A4313432168CA681A43CA60A26B1D
:1006A000802149058A420DD0012A0BD0022A09D0A7
:1006B000032A07D0042A05D0052A03D0062A01D030
:1006C000072A0AD1206841690722914341612068C5
:1006D0004169A56B2A400A4342612268D2682349D6
:1006E0000A409A422BD0636C12229343023A13437E
:1006F0006364A36C0F3A1343A36401202EE0836468
:1007000040228354FFF75EFE7BE70B68DB079BD438
:10071000CB681B0498D48AE71000A7E70422ABE754
:10072000002903D1802252021343ACE7626C2021DE
:100730000A436264A26C1F390A43A264A3E7002340
:10074000A364636C03229343023A1343636400205F
:1007500004E0636C102213436364012070BD012028
:10076000FCE7C046FDFEFFFF1902FEFFE7FF3F83E7
:1007700030B583B00400002301934033C35C012BE8
:1007800000D18AE040230122C25403689A685207CC
:1007900075D4434A4868904256D09A6A01200D6841
:1007A000A84002439A62A36B8022520593421ED056
:1007B000012B1CD0022B1AD0032B18D0042B16D0DF
:1007C000052B14D0062B12D0072B10D022685069AD
:1007D000072303408868984209D05069072398434B
:1007E0005061206842698D682B40134343610B6858
:1007F0001A00103A022A4CD82A4A1268102B0ED03E
:10080000112B09D080235B041343264A13600B6825
:10081000102B07D0002037E08023DB03F4E7802390
:100820001B04F1E7204B18682049FFF76DFC83009B
:1008300018184300019302E0019B013B0193019BC7
:10084000002BF9D100201FE09A6A01200D68A84012
:1008500082439A620B681A00103A022A1BD8114A86
:100860001268102B09D0112B05D0114B13400D4AE3
:100870001360002008E00F4BF8E70F4BF6E7436CDE
:10088000202213434364012040230022E25403B09A
:1008900030BD0020F8E70020F6E70220F7E7C04669
:1008A00001100000082701400000002040420F0016
:1008B000FFFFFFFEFFFFBFFFFFFF7FFF03689A6997
:1008C000920701D500229A6203689A69D20703D47D
:1008D0009A6901210A439A617047000030B51D00F2
:1008E00004686068064B18408905890D12040B00E6
:1008F00013432B43039A13430343636030BDC04645
:10090000009800FC70B504000E00150003689B6998
:10091000DB0616D523689A69920614D4731CF9D0A5
:10092000002E04D000F07CFF401BB042F2D94123DE
:100930002022E25400232232A354023AA35403207B
:1009400018E0002016E01022DA6123682025DD611E
:100950002000FFF7B3FF2268536807490B4053603C
:10096000042363643D33E55400234222A354023A36
:10097000A354012070BDC04600E800FE70B504001D
:100980000D00160023689B699B071CD432002900C8
:100990002000FFF7B7FF002817D16B1CF2D0002D05
:1009A00004D000F03DFF801BA842EBD9636C2022ED
:1009B000134363644123E25400232232A354023AD6
:1009C000A354032000E0002070BD0120FCE7F8B52F
:1009D00006000C0017001D0033689B6923401B1B99
:1009E0005A425341BB4213D16B1CF5D0002D05D0A8
:1009F00000F016FF069BC01AA842EDD94123202221
:100A0000F25400232232B354023AB354032000E0DC
:100A10000020F8BD70B505000C0016002B689B691E
:100A20009B061AD4320021002800FFF76BFF002834
:100A300015D1002C04D000F0F3FE801BA042EDD9AC
:100A40006B6C202213436B644123EA54002322324F
:100A5000AB54023AAB54032070BD0020FCE70120E8
:100A6000FAE7000070B504000D00160023689B69CA
:100A70005B072DD4320029002000FFF743FF002838
:100A800028D123689A69920611D4002D04D000F071
:100A9000C7FE801BA842E9D9636C2022134363641C
:100AA0004123E254013B0022E254032070BD202286
:100AB000DA6121684B68084803404B600023636497
:100AC000412162542232A354023AA3540120EDE79B
:100AD0000020EBE70120E9E700E800FE10B5041E66
:100AE00059D04123C35C002B43D041232422E2543C
:100AF0002268136801218B4313602268274B6168C9
:100B00000B4013612268936825490B409360E368AA
:100B1000012B34D0226884231B02A1680B4393600D
:100B2000E368022B32D0226851681E4B0B4353609E
:100B30002268D3681A490B40D36023696269134362
:100B4000A269120221681343CB602268E369216A1B
:100B50000B4313602268136801210B4313600023C9
:100B6000636441221F31A15423630132A354002046
:100B700010BD40330022C254FFF772FCB5E7226873
:100B800080231B02A1680B439360C9E7236880227E
:100B900012015A60C7E70120EAE7C046FFFFFFF0F5
:100BA000FF7FFFFF00800002F0B585B005000391D4
:100BB00017001E004123C35C202B00D0A5E020338A
:100BC000C35C012B00D1A3E040230122C25400F0FA
:100BD00027FE040080210090192301220902280029
:100BE000FFF7F5FE002800D094E041232122EA54CB
:100BF0000133113AEA5400236B646F626E856B63B4
:100C00006B8D9BB2FF2B0CD9FF232B857F3B802262
:100C1000920100925B04FF2203992800FFF75EFE19
:100C20001FE06A8D92B22A858023D2B28021890189
:100C300000919B0403992800FFF750FE11E06B6CB4
:100C4000042B00D068E0012060E06A8D92B22A8512
:100C50008023D2B2002100919B0403992800FFF762
:100C60003DFE6B8D9BB2002B33D022000A992800E9
:100C7000FFF784FE0028E2D16B6A5A1C6A622A6878
:100C80001B7893626B8D013B9BB26B852B8D013B77
:100C90009BB22B85002BE4D16B8D9BB2002BE0D057
:100CA00000940A9B002280212800FFF790FE002874
:100CB00034D16B8D9BB2FF2BC7D9FF232B857F3B94
:100CC000002200925B04FF3203992800FFF706FE22
:100CD000C7E722000A992800FFF79CFE002804D0ED
:100CE0006B6C042B1CD1012010E02B682022DA61F0
:100CF00029684B680B4C23404B604123EA54002386
:100D00002232AB54023AAB5400E0022005B0F0BDF1
:100D10000220FBE70320F9E70320F7E70320F5E7CC
:100D20000320F3E700E800FEF0B585B0050003916D
:100D300017001E004123C35C202B00D0A5E0203308
:100D4000C35C012B00D1A3E040230122C25400F078
:100D500067FD040080210090192301220902280068
:100D6000FFF735FE002800D094E041232222EA5408
:100D70000133123AEA5400236B646F626E856B6331
:100D80006B8D9BB2FF2B0CD9FF232B857F3B9022D1
:100D9000920100925B04FF2203992800FFF79EFD59
:100DA0001FE06A8D92B22A858023D2B290218901F8
:100DB00000919B0403992800FFF790FD11E06B6CF4
:100DC000042B00D068E0012060E06A8D92B22A8591
:100DD0008023D2B2002100919B0403992800FFF7E1
:100DE0007DFD6B8D9BB2002B33D022000A99280029
:100DF000FFF738FE0028E2D12B685A6A6B6A591C4B
:100E000069621A702B8D013B9BB22B856A8D013A6A
:100E100092B26A85002BE4D16B8D9BB2002BE0D09F
:100E200000940A9B002280212800FFF7D0FD0028B3
:100E300034D16B8D9BB2FF2BC7D9FF232B857F3B12
:100E4000002200925B04FF3203992800FFF746FD61
:100E5000C7E722000A992800FFF7DCFD002804D02C
:100E60006B6C042B1CD1012010E02B682022DA616E
:100E700029684B680B4C23404B604123EA54002304
:100E80002232AB54023AAB5400E0022005B0F0BD70
:100E90000220FBE70320F9E70320F7E70320F5E74B
:100EA0000320F3E700E800FEF0B54123C35C202BEC
:100EB00020D12033C35C012B1ED0402401220255D7
:100EC00041252423435506683368934333600668FD
:100ED00033680A4F3B40336006683368194331601A
:100EE00001680B6813430B6020234355002303550F
:100EF000002000E00220F0BD0220FCE7FFEFFFFF32
:100F0000F0B54123C35C202B1ED12033C35C012BE1
:100F10001CD0402401220255412524234355066854
:100F200033689343336006683368094F3B400902D6
:100F30001943316001680B6813430B60202343554C
:100F400000230355002000E00220F0BD0220FCE752
:100F5000FFF0FFFF70B582B004000368DB072BD5FC
:100F6000B34B5A680C231340042B1DD0B04B5A6866
:100F70000C231340082B0ED06368012B41D0002BAB
:100F800056D1AB4B1A68AB490A401A601A68AA4995
:100F90000A401A603BE0A64B5B68C0225202134035
:100FA000802252029342E7D1A14B1B689B0303D5D9
:100FB0006368002B00D139E223689B0778D59C4BEE
:100FC0005B680C221A4262D0994B5A680C2313407A
:100FD000082B53D0E368002B00D18BE0944A1368B0
:100FE00001210B43136000F01BFC0500904B1B68B4
:100FF0009B0776D400F014FC401B0228F6D903208E
:1010000017E28B4A116880235B020B43136063680D
:10101000002B25D000F004FC0500854B1B689B03CA
:10102000CAD400F0FDFB401B6428F6D9032000E27F
:10103000052B09D07E4B1A687E490A401A601A684F
:101040007D490A401A60E2E7794B19688022D20292
:101050000A431A601968802252020A431A60D6E7CE
:1010600000F0DEFB0500724B1B689B03A4D500F06B
:10107000D7FB401B6428F6D90320DAE16C4B5B6890
:10108000C02252021340802212029342A2D1684B26
:101090001B689B0704D5E368012B01D00120C8E140
:1010A00063490B68F82293432269D20013430B6013
:1010B00023681B0744D5E369002B2ED05C4A536A92
:1010C00001210B43536200F0ABFB0500584B5B6AF8
:1010D0009B0735D400F0A4FB401B0228F6D903205F
:1010E000A7E153490B68F82293432269D2001343C6
:1010F0000B60DDE74E4A136801218B43136000F05B
:101100008FFB05004A4B1B689B07D1D500F088FB7D
:10111000401B0228F6D903208BE1454A536A01217E
:101120008B43536200F07CFB0500414B5B6A9B07DD
:1011300006D500F075FB401B0228F6D9032078E1A4
:1011400023685B0700D47FE0394BDB69DB001DD4EB
:10115000374AD169802040050143D161D3690340FA
:101160000193019B0125354B1B68DB0510D5A36856
:10117000012B21D0002B36D12D4B1A6A01218A4335
:101180001A621A6A03318A431A621AE00025EAE7F2
:101190002A4A116880235B000B43136000F040FB78
:1011A0000600264B1B68DB05E1D400F039FB801BF1
:1011B0006428F6D903203CE11D4A136A01210B4340
:1011C0001362A368002B24D000F02AFB0600184B02
:1011D0001B6A9B0736D400F023FB801B184B9842F8
:1011E000F5D9032025E1052B09D0114B1A6A0121FD
:1011F0008A431A621A6A03318A431A62E1E70C4B86
:101200001A6A04210A431A621A6A03390A431A62E3
:10121000D7E700F005FB0600054B1B6A9B0711D5BD
:1012200000F0FEFA801B064B9842F5D9032000E13E
:1012300000100240FFFFFEFFFFFFFBFF00700040B9
:1012400088130000012D3AD02368DB0610D56369AE
:10125000012B3AD0053358D1784A536B04218B4384
:101260005363536BF4318B43A169C9000B43536340
:1012700023689B0600D482E0704B5A680C2313400D
:101280000C2B60D06D4B5A680C231340082B53D0A5
:10129000236A002B60D0694A516B80235B020B43A9
:1012A000536300F0BDFA0500644B5B6BDB0366D44F
:1012B00000F0B6FA401B0228F6D90320B9E05F4AD5
:1012C000D3695F490B40D361BEE75C4B5A6B042185
:1012D0000A435A635A6B03390A435A6300F0A0FA6F
:1012E0000500564B5B6B9B0706D400F099FA401B38
:1012F0000228F6D903209CE050494B6BF822934317
:10130000A269D20013434B63B2E74C4B5A6B0421E2
:101310000A435A635A6B03398A435A6300F080FACE
:101320000500464B5B6B9B07A2D500F079FA401B8A
:101330000228F6D903207CE0404B5B68C0225202B1
:1013400013409342A4D13D4B5B6BDB0317D5236A5B
:10135000012B14D001206CE0384A536B39490B4003
:10136000536300F05DFA0500344B5B6BDB0306D57D
:1013700000F056FA401B0228F6D9032059E0636AB0
:10138000002B55D02D4A51680C220A40082A52D011
:10139000022B12D0294A13682B490B40136000F02E
:1013A0003FFA0400254B1B689B013DD500F038FA3D
:1013B000001B0228F6D903203BE0204A136822498B
:1013C0000B40136000F02CFA05001C4B1B689B01BE
:1013D00006D500F025FA401B0228F6D9032028E0A4
:1013E000164BDA6A0F218A43216B0A43DA625A6884
:1013F00016490A40E16AA06A01430A435A60196823
:10140000802252040A431A6000F00AFA04000B4BCF
:101410001B689B0106D400F003FA001B0228F6D9D2
:10142000032006E0002004E0002002E0012000E0AC
:10143000002002B070BD0120FBE7C0460010024052
:10144000FFFFFFEFFFFFFEFFFFFFFFFEFF7FC2FF7B
:1014500030B589B004AA1F4B180032C832C211003F
:1014600002680A606A46103313CB13C21B6813600C
:10147000194B5A680C231340082B04D00C2B26D090
:10148000164809B030BD910C0F23194004A8445CE4
:101490001149C96A0B406946C95CC0235B021A4006
:1014A00080235B029A4208D0C0235B029A4209D093
:1014B0000A48FEF729FE6043E3E70848FEF724FEEA
:1014C0006043DEE70648FEF71FFE6043D9E70448A5
:1014D000D7E7C046106200080010024000127A00F0
:1014E000006CDC0270B505000C00594B1A68012332
:1014F00013408B420BD256490B680122934323437E
:101500000B600B681A40A24201D0012070BD2B680D
:101510009B0706D54F4A5368F0218B43A9680B43BC
:1015200053602B68DB0763D56B68012B09D0022B56
:1015300028D0032B2CD0474A1268920705D40120EB
:10154000E4E7444A126892037FD542494A6803207F
:10155000824313434B6000F063F906006B68012B74
:101560001CD0022B28D0032B34D03A4B5B680C22C2
:101570001A423DD000F054F9801B374B9842F4D901
:101580000320C3E7334A12689201DED40120BDE78D
:10159000304A526BD203D8D40120B7E72D4B5A689A
:1015A0000C231340042B23D000F03AF9801B2A4B64
:1015B0009842F3D90320A9E7264B5A680C2313401D
:1015C000082B15D000F02CF9801B234B9842F3D93F
:1015D00003209BE71F4B5A680C2313400C2B07D0AA
:1015E00000F01EF9801B1C4B9842F3D903208DE7B5
:1015F000174B1A6801231340A3420BD914490B68F7
:101600000122934323430B600B681A40A24201D08E
:1016100001207BE72B685B0706D50E4A53680F490C
:101620000B40E9680B435360FFF712FF094B5A6800
:1016300012090F2313400A4AD35CD840094B1860A3
:10164000032000F0C3F8002060E701205EE7C046F9
:10165000002002400010024088130000FFF8FFFF46
:101660005862000800000020014B18687047C0460F
:101670000000002070B582B004000368DB0335D59C
:101680004B4BDB69DB0066D4494AD16980204005B9
:101690000143D161D36903400193019B0125454B6F
:1016A0001B68DB0559D5424B1B6AC02292001340D0
:1016B00013D061680A409A420FD03D4B186A3E4AE7
:1016C00002401E6A8021490231431962196A3B4E69
:1016D000314019621A62C30753D4354A136A364936
:1016E0000B4061680B431362012D59D02368DB075F
:1016F00006D52F4A136B03218B43A1680B43136359
:1017000023689B0706D52A4A136B2D490B40E168D5
:101710000B43136323689B0606D5254A136B1021E0
:101720008B4321690B43136323689B0306D5204A2F
:10173000136B80218B43A1690B43136323685B0503
:1017400033D51B4A136B40218B4361690B431363F1
:10175000002002B070BD0025A1E7164A1168802361
:101760005B000B43136000F05BF80600114B1B6835
:10177000DB0598D400F054F8801B6428F6D90320C8
:10178000E7E700F04DF80600094B1B6A9B07A4D45D
:1017900000F046F8801B0B4B9842F5D90320D8E7A0
:1017A000D36909490B40D361A0E70020D1E7C046C7
:1017B0000010024000700040FFFCFFFFFFFFFEFF33
:1017C000FFFFFCFF88130000FFFFFFEF10B50400D0
:1017D000FFF74AFFFA218900FEF796FC00F0D0F9E6
:1017E000012000222100404200F090F9002010BDAD
:1017F00010B5064A136810210B4313600320FFF74E
:10180000E5FFFEF7C1FD002010BDC04600200240EC
:10181000024A1368013313607047C046EC11002080
:10182000014B18687047C046EC110020F0B5C64661
:1018300000B582B0002338E0042600E00026AE4068
:1018400035003D430234A400574EA551574C25683E
:101850004246D4432E0026404A68D20302D542466F
:1018600015432E00514D2E606D682E0026404A68AB
:10187000920302D5424615432E004C4D6E60AD6872
:101880002E0026404A68D20202D5424615432E0059
:10189000464DAE60ED682C404A68920202D5424641
:1018A0002A431400414AD46001330A681400DC4022
:1018B00076D001259D402A409046F5D04C68022CF8
:1018C00001D0122C0ED1DC080834A40027580726BA
:1018D0001E40B6000F22B24097430A69B24016007C
:1018E0003E43265002685F0003242600BE40F643B4
:1018F000324094464A681440BC4062461443046037
:101900004C68621E012A03D9112C01D0122C10D16F
:1019100084683440A446CC68BC406246144384606A
:101920004468AC434A681209012515409D4025438F
:101930004560C46826408C68BC403443C4604A6833
:10194000D200B1D51A4DAE6901242643AE61AD690E
:101950002C400194019C9C08A51CAD00124EAF596F
:1019600003261E40B5000F26AE40B7439026F6056D
:10197000B04200D162E70F4EB0420BD00E4EB042E3
:101980000AD00E4EB04209D00D4EB04200D153E7FE
:10199000052654E7012652E7022650E703264EE7C4
:1019A00002B004BC9046F0BD0000014000040140BC
:1019B000001002400004004800080048000C0048E5
:1019C0000010004803690B4201D10020704701203C
:1019D000FCE7002A01D1816270478161FCE70000C9
:1019E00010B504000368064A9446634418001421A5
:1019F000FEF78AFB80002064024BE36310BDC04603
:101A0000F8FFFDBF0000024070B5041E24D0212560
:101A10000223435501680B68104A1A4043688068E6
:101A20000343E06803432069034360690343A069FB
:101A30000343E069034313430B602000FFF7D0FF2B
:101A40000023A362E36223636363A36301226255FD
:101A50001F32A354002070BD0120FCE70FC0FFFF20
:101A600070B5C36B1A6804682568016C04238B4049
:101A70001A4212D06B0710D523689B0603D4236843
:101A8000042293432360C26B0423016C8B40536098
:101A9000C36A002B00D0984770BD02238B401A42C6
:101AA00018D0AB0716D523689B0606D423680A22F4
:101AB000934323602123093AC254C26B0223016C71
:101AC0008B40536020230022C254836A002BE3D052
:101AD0009847E1E708238B401A42DDD02B07DBD57E
:101AE00023680E2293432360C26B01231900046C08
:101AF000A14051608363212283541F330022C254CA
:101B0000036B002BC8D09847C6E7000070B50028CB
:101B100011DB8408134DC034A4006259032318401C
:101B2000C000FC331E008640B24389010B40834055
:101B30001343635170BDC0B20F220240083A9208AD
:101B400006329200084BD3185D6803242040C00081
:101B5000FF2214008440A54389010A4082402A43A1
:101B60005A60E7E700E100E000ED00E01F231840C5
:101B70001E3B8340014A13607047C04600E100E00D
:101B800001380A4B98420FD8094A50600948036A45
:101B90001B021B0AC02109060B430362002393604A
:101BA00007331360002070470120FCE7FFFFFF00B0
:101BB00010E000E000ED00E080B500AF1A4B1A68BD
:101BC0001A4B9A420BD1184B194A1A60194B83F3DE
:101BD0000888194B1B68194A13609847FEE7184B91
:101BE0001A6801210A431A605A68164802405A606E
:101BF0001A68154802401A601A68144802401A60B0
:101C00005A68134802405A60DA6A0F208243DA6247
:101C10001A6B104802401A635A6B8A435A630022B7
:101C20009A60BD4680BDC046F03F0020EFBEADDEED
:101C3000EDFEFECA5022002004C8FF1FF011002054
:101C4000001002400CB8FF08FFFFF6FEFFFFFBFF8D
:101C5000FFFFC0FF2CFEFCFF10B598B03022002122
:101C60000CA803F0AAFE10241022002107A803F0FC
:101C7000A4FE1C220021684603F09FFE32230B9332
:101C8000313B0E93139310930F9411940BA8FFF70D
:101C900061F9002818D107230793043B0893002318
:101CA00009930A93012107A8FFF71CFC00280ED115
:101CB0000A4B00930023049306936846FFF7DAFC6F
:101CC000002807D118B010BDFEF72CFBE3E7FEF7A4
:101CD00029FBEDE7FEF726FBF4E7C04620000200F3
:101CE00000B585B00C22002101A803F066FE1C4857
:101CF0001C4B0360002343608360C36001220261C8
:101D0000082141618361C36102624362C221FF31E4
:101D10008162C36203634263FEF76CFC002816D144
:101D20000123019380235B0102930723039301A9FD
:101D30000B48FEF71DFD00280CD10223019301A9D9
:101D40000748FEF715FD002807D105B000BDFEF7D6
:101D5000E9FAE5E7FEF7E6FAEFE7FEF7E3FAF4E77C
:101D6000E01300200024014010B51448144B036018
:101D7000144B4360002383600122C260036143610E
:101D80008361C3610362FEF7A9FE00280CD1002124
:101D90000A48FFF789F8002809D100210748FFF712
:101DA000AFF8002806D110BDFEF7BCFAEFE7FEF74A
:101DB000B9FAF2E7FEF7B6FAF5E7C04638120020A6
:101DC000005400400B02000010B51748174B036089
:101DD000174B4360002383600122C26003614361AB
:101DE0008361C3610362FEF779FE002812D10021EE
:101DF0000D48FFF759F800280FD100210A48FFF7D6
:101E00007FF800280CD10B4A116880239B030B43F9
:101E1000136010BDFEF786FAE9E7FEF783FAECE7F8
:101E2000FEF780FAEFE7C046841200200058004019
:101E3000090200200000014000B583B0114A516939
:101E4000012319435161526913400193019B002200
:101E500003210920FFF75AFE0920FFF787FE002221
:101E600003210A20FFF752FE0A20FFF77FFE00221F
:101E700003210B20FFF74AFE0B20FFF777FE03B08C
:101E800000BDC04600100240F0B589B01422002108
:101E900003A803F092FD234B59698020800201437F
:101EA00059615A6902400192019A5A698021C90216
:101EB0000A435A615B690B400293029B84277F00AF
:101EC000194D002239002800FFF783FD08230393F2
:101ED00000240494063B05939026F60503A93000E0
:101EE000FFF7A4FC80235B0103930494059403A9EA
:101EF0002800FFF79BFC0397083FFF3F04970594DA
:101F0000069403A92800FFF791FC84231B02039386
:101F100004970594069403A93000FFF787FC09B0E5
:101F2000F0BDC0460010024000040048124A5307AA
:101F30001FD0D11D07239943C0231B015B1A9B1897
:101F40000A000E48026000214160D318083B0720B8
:101F500083430B48036059601960991A51601360FC
:101F6000084B1960084B1960084B802212061A6052
:101F70007047C0231B01E4E7E0010020EC0D0020C6
:101F8000DC010020E80D0020E40D0020E00D002021
:101F900010B5124B1A68824219D359685C188442F2
:101FA00003D1406809185960180041684418A242DA
:101FB00011D10B4C2468A2420BD0526889184160A1
:101FC0001A6812680260984200D0186010BD1300B1
:101FD000E0E70460F7E70260F5E7C046EC0D00209B
:101FE000DC01002070B5040000F02EFB2E4B1B68B6
:101FF000002B0FD02D4B1B6823424BD1002C0CD053
:102000000834630709D007239C430834234204D0D3
:1020100072B6FEE7FFF78AFFECE7002C3CD0244BBA
:102020001B68A3423AD3234B1D6801E02B00150027
:102030006A68A24202D22A68002AF7D11A4A1268B4
:10204000AA422DD01E6808362A681A606B681B1BCE
:10205000102B08D92819420701D072B6FEE7436059
:102060006C60FFF795FF6A6811490B689B1A0B605B
:10207000114909688B4201D20F490B600B4B1B6859
:1020800013436B6000232B6000F076FB730709D0CD
:1020900072B6FEE70026F7E70026F5E70026F3E72D
:1020A0000026F1E7300070BDDC010020E00D0020CB
:1020B000E40D0020EC0D0020E80D002070B5002894
:1020C00020D00500083D6B680F4A12681A4201D102
:1020D00072B6FEE7010008390968002901D072B61E
:1020E000FEE7083804009343436000F0ADFA6368EC
:1020F000064A11688C46634413602800FFF748FFC6
:1021000000F03AFB70BDC046E00D0020E40D002059
:10211000034B1B68013301D072B6FEE772B6FEE7CF
:10212000040000200000000000000000000000008B
:102130000B4A13681868203080F30988022080F366
:102140001488BFF36F8F3FBCAE4608BC04BC62B6B8
:102150001847C046C046C046C046C046C046C046F6
:10216000F40D002010B5031F802464041C60043BA0
:102170001960043B02491960143B1A60403810BDD5
:102180001121000870470000044B802252051A609C
:10219000BFF34F8FBFF36F8F7047C04604ED00E071
:1021A00072B6044A136801331360BFF34F8FBFF355
:1021B0006F8F704704000020064B1B68002B01D175
:1021C00072B6FEE7013B034A1360002B00D162B6F2
:1021D0007047C04604000020EFF3108072B67047CD
:1021E000002080F31088704700000000000000000D
:1021F000EFF309800E4B1A6820381060F0C0444697
:102200004D4656465F46F0C008B572B600F076FB04
:1022100062B60CBC116808681030F0C8A046A94628
:10222000B246BB4680F309882038F0C81847C0463C
:10223000F40D002010B5FFF7CFFF040000F012FAF4
:10224000002803D0034B802252051A602000FFF7BC
:10225000C8FF10BD04ED00E010B5064B1868FA2168
:102260008900FDF751FF0138034B1860034B07222B
:102270001A6010BD0000002014E000E010E000E053
:1022800010B50A4B1968FF2212040A431A60196834
:10229000FF2212060A431A60FFF7DEFF044B0022FA
:1022A0001A60FFF745FFFFF733FFC04620ED00E05F
:1022B0000400002003000833436001225242826080
:1022C000C36003610023036070470023036170470C
:1022D00043684B609A688A609A68516099600861A7
:1022E000036801330360704730B50C68631C02D08B
:1022F0000200083202E0026904E01A0053681D6817
:10230000A542FAD953684B6099608A6051600861B0
:1023100003680133036030BD0369426881689160DE
:102320008268416851605A68824205D00022026189
:102330001A68501E1860704782685A60F6E70000FD
:10234000084B1B681B68002B07D0064B1B68DB681B
:10235000DB685A68044B1A607047034B01225242F3
:102360001A60F9E7F80D0020D00E002010B5040027
:10237000006BFFF7A3FE2000FFF7A0FE10BD0000DA
:10238000F0B583B000900193089C0A9E1D4B9C46BB
:1023900062449200336B9C46624407239A431700C1
:1023A00000230F2B09D8C8180578F218343215709D
:1023B0000278002A01D00133F3E743230022F254CC
:1023C000062C00D90624F46274640025B564301D1F
:1023D000FFF77BFF30001830FFF777FF36610723E8
:1023E0001C1BB4617662F5644933F554019A009977
:1023F0003800FFF7B7FE3060099B002B00D01E604D
:1024000003B0F0BDFFFFFF3F70B5002407E0A3005D
:102410001B1998000E4BC018FFF74CFF0134062C17
:10242000F5D90C4D2800FFF745FF0B4C2000FFF7B6
:1024300041FF0A48FFF73EFF0948FFF73BFF094805
:10244000FFF738FF084B1D60084B1C6070BDC0468D
:10245000000E0020A40E0020B80E0020D80E002090
:10246000040F0020F00E0020F80D0020FC0D0020CD
:1024700010B50400FFF794FE1F4A13680133136080
:102480001E4B1B68002B0CD01D4B1B68002B0DD165
:102490001A4B1B68DB6AE26A934207D8174B1C6031
:1024A00004E0164B1C601368012B1FD0154A1368FB
:1024B00001331360E26A144B1B689A4201D9124B34
:1024C0001A60211D93009B189800104BC018FFF74D
:1024D000FFFEFFF771FE0A4B1B68002B05D0074B70
:1024E0001B68DA6AE36A9A4203D310BDFFF78CFFD8
:1024F000DCE7FFF749FEF8E78C0E0020F40D002022
:10250000EC0E00209C0E0020A00E0020000E0020EB
:1025100070B504000D00174B1E68174B1868043087
:10252000FFF7FAFE631C13D03419134B1B685C6071
:10253000A64216D8114B18680F4B19680431FFF7E3
:10254000D3FE0F4B1B68A34212D90D4B1C600FE04A
:10255000002DE9D0084B196804310A48FFF7B8FE8E
:1025600006E0094B1868044B19680431FFF7BCFEFC
:1025700070BDC046180F0020F40D0020F80D00209B
:10258000D00E0020F00E0020FC0D0020F0B587B02A
:102590000490059114001F009000FFF723FD061E14
:1025A0001ED05420FFF71EFD051E15D00663002D1A
:1025B00019D00023039302950D9B01930C9B00936C
:1025C0003B00220005990498FFF7DAFE2800FFF788
:1025D0004FFF012007B0F0BD3000FFF76FFDE6E7C9
:1025E00001204042F6E701204042F3E700B583B006
:1025F0000F4B01930023009380220E490E48FFF7F2
:10260000C5FF012803D0431C0FD003B000BD72B634
:102610000A4B012252421A60094B02321A60094BDE
:1026200000221A60FFF72CFEEFE772B6FEE7C04605
:10263000CC0E002068620008E5280008D00E0020BB
:10264000EC0E0020180F0020024A136801331360BB
:102650007047C046980E0020014B18687047C0466E
:10266000180F0020F8B5394B1B68002B61D1384B8F
:102670001D6801351D60002D12D1364B1B681B688B
:10268000002B01D072B6FEE7324A1168324B18684F
:1026900010601960314A136801331360FFF750FE70
:1026A0002F4B1B68AB423AD900242E4B1B68DA6AC9
:1026B00093009B189A002C4BD358012B3ED9012430
:1026C0003CE00124234B1B681B68002B29D0214BC5
:1026D0001B68DB68DE6873689D4227D3371D3800AE
:1026E000FFF71AFEB36A002B03D030001830FFF753
:1026F00013FEF26A1D4B1B689A4201D91B4B1A60EC
:1027000093009B189800184BC0183900FFF7E0FDA4
:10271000F26A144B1B68DB6A9A42D2D2D2E70024D9
:10272000D0E70F4B012252421A60BEE70C4A1360F9
:10273000BBE70F4A13680133136000240D4B1B687D
:10274000002B00D001242000F8BDC046980E0020C8
:10275000180F0020F80D0020FC0D0020D40E0020E2
:10276000D00E0020F40D0020000E0020A00E00204E
:10277000940E00201C0F002070B5314B1B68002BFD
:1027800001D172B6FEE7FFF70BFD2D4B1A68013A37
:102790001A601B68002B4ED12A4B1B68002B04D1FA
:1027A0000024FFF709FD200070BD0024264B1B68A4
:1027B000002B23D0244BDB68DC6820001830FFF7A7
:1027C000ABFD251D2800FFF7A7FDE26A1F4B1B6824
:1027D0009A4201D91D4B1A6093009B1898001C4B1C
:1027E000C0182900FFF774FD1A4B1B68DB6AE26A08
:1027F0009A42DBD3184B01221A60D7E7002C01D094
:10280000FFF79EFD154B1C68002C0CD0FFF72AFF2C
:10281000002802D0104B01221A60013C002CF5D197
:102820000E4B00221A600C4B1B68002B05D0FFF7E3
:10283000ABFC0124B5E70024B3E70024B1E7C046B0
:10284000980E00208C0E0020D80E0020A00E002034
:10285000000E0020F40D00201C0F0020940E00201C
:1028600010B5041E0FD0094B1B68002B01D072B6A7
:10287000FEE7FFF7E9FE00212000FFF749FEFFF722
:102880007BFF002801D1FFF77FFC10BD980E0020D0
:1028900010B5114B1B68002B1DD0FFF7D5FE0F4B59
:1028A0001C68FFF769FF002CF3D0FFF779FC0B4B96
:1028B000DB68DC68201DFFF72FFD094A1368013B28
:1028C0001360054A1368013B1360FFF775FC200095
:1028D000FFF74CFDDDE710BD900E0020040F002037
:1028E0008C0E002010B5FFF7D3FF034B1B68012BA4
:1028F000F9D9FFF749FCF6E7000E002030B51D4B73
:102900001B68002B03D01C4B01221A6030BD1A4BF0
:1029100000221A60194B1B689A00D2189100184ABD
:102920008A58002A05D1002B01D0013BF4E772B68A
:10293000FEE7134D9900CA189000281842685468A1
:102940004460C9188A000832521994420BD09A0088
:10295000D21891000A4A52185268D168094A116087
:10296000064A1360D2E76068142159436A18506020
:10297000EDE7C046980E00201C0F0020A00E00209E
:10298000000E0020F40D0020064B1B68002B07D022
:10299000054B1B68002B01D0002002E0022000E064
:1029A00001207047EC0E0020980E0020842801D0F2
:1029B000033070470020FCE710B5FFF717FE00203A
:1029C00010BDF0B585B00D0046680768046908239E
:1029D000C05EFFF7EBFFA2B203AB019300902B00A8
:1029E00039003000FFF7D2FD012802D1039805B06D
:1029F000F0BD0020FBE710B5002800D10130FFF743
:102A00002FFF002010BD10B5FFF7BEFF012801D039
:102A1000FFF710FC10BD000010B5094C0022094959
:102A2000200002F0AEF90849200002F0C6F907497B
:102A3000200002F013FF200002F0C8F910BDC046CC
:102A40002C140020080000204C0000203C00002036
:102A500010B5FFF701F910BD00B583B002680C4B4B
:102A60009A4201D003B000BD0A4AD1698020000417
:102A70000143D161D36903400193019B00220321EB
:102A80001F20FFF743F81F20FFF770F8EAE7C04662
:102A9000005C00400010024010B5010087239B003D
:102AA000C058ED31FF3102F0AFF910BD10B5030091
:102AB000872292008058CA00521A94001B191933B9
:102AC000FF331A6802F0D4F910BD10B50300872255
:102AD00092008058CA00521A94001B199A6B02F097
:102AE00003FA10BD10B587239B00C05802F095FA79
:102AF00010BD70B505008724A4000121005902F023
:102B000077FA285902F051FA70BD000010B50400A0
:102B100087239B00C05802F06EFAA369002B04D0F3
:102B2000024A136906210B43136110BD00ED00E05A
:102B300010B504008369002B05D187239B00E05862
:102B400002F064FA10BD044A136906218B43136135
:102B5000FFF77EFFF1E7C04600ED00E070B504002E
:102B60001E4887239B00C4500433E0501C4B036075
:102B700008234360022282600023C36002618361F4
:102B8000C361036200F0D2FF002823D18825AD0085
:102B9000182300220021605902F0D6F858230022A1
:102BA0008021605902F0D0F8C023002281216059B1
:102BB00002F0CAF888235B0000220121605902F06C
:102BC000C3F8605980235B000022822102F0BCF828
:102BD000002070BDFDF7A6FBD8E7C04650160020C8
:102BE000005C004010B588239B00C05800F0FEFF39
:102BF000002803D0022803D0022010BD0020FCE7EB
:102C00000120FAE710B514001A0088239B00C05871
:102C1000230001F013F8002803D0022803D002207B
:102C200010BD0020FCE70120FAE710B588239B00C7
:102C3000C05801F0ADF9002803D0022803D00220CB
:102C400010BD0020FCE70120FAE710B588239B00A7
:102C5000C05801F08FFB002803D0022803D00220C7
:102C600010BD0020FCE70120FAE710B588239B0087
:102C7000C05801F0DFFB002803D0022803D0022057
:102C800010BD0020FCE70120FAE70A0088239B0022
:102C9000C35849B2002909DB7F211140CA00511AEB
:102CA0008A009B180B33FF33187870477F2111403F
:102CB000C800411A8A009B182A331878F5E710B526
:102CC00088239B00C05800F09DFF002803D00228F5
:102CD00003D0022010BD0020FCE70120FAE710B568
:102CE0008824A400005901F029FC002803D0022800
:102CF00003D0022010BD0020FCE70120FAE710B548
:102D00008824A400005901F02BFA002803D00228DF
:102D100003D0022010BD0020FCE70120FAE710B527
:102D200088239B00C05801F01BFB10BD0048704772
:102D3000200F00207047000012230B8000487047CE
:102D40002400002004230B80004870473800002036
:102D500010B50A00002805D00549064802F00BFC12
:102D6000034810BD0249034802F005FCF8E7C046DD
:102D700070180020A062000810B50A00034C210062
:102D8000034802F0F8FB200010BDC0467018002078
:102D90008C62000810B50A00002805D005490648D5
:102DA00002F0E9FB034810BD0249034802F0E3FBCF
:102DB000F8E7C04670180020B862000810B50A0095
:102DC000002805D00549064802F0D5FB034810BD90
:102DD0000249034802F0CFFBF8E7C0467018002014
:102DE0007062000810B50A00002805D005490648A1
:102DF00002F0C1FB034810BD0249034802F0BBFBCF
:102E0000F8E7C046701800207C6200080020704778
:102E10000020704710B50100044C200002F032FD84
:102E2000200002F053FD002010BDC0462C140020ED
:102E300010B5064C00220649200002F018FD054995
:102E4000200002F01FFD002010BDC0462C14002001
:102E5000581E0020701A002010B50A4C86239B00D3
:102E6000E458043BE358002B01D0012010BD054C71
:102E70000A000100200002F0FAFC200002F009FD27
:102E8000F4E7C0462C14002010B584B003AC2170C8
:102E9000627003010548C018818801230093013343
:102EA00022000348FDF780FE04B010BD4862000810
:102EB00038120020F0B585B0170003AC2170030173
:102EC0000B48C01886880125009501232200310097
:102ED0000848FDF769FE00950123220031000548EE
:102EE000FDF722FF23783B60012005B0F0BDC0460E
:102EF000486200083812002030B583B004001D007D
:102F0000002A0ED0079B9B0711D50201144B9B187A
:102F100098880123009303330A0001001148FDF74C
:102F200043FE069B002B0FD1012003B030BD0201F0
:102F30000B4B9B1898880123009303330A00010070
:102F40000848FDF731FEECE72401054B1C19A18868
:102F50000123009303332A000248FDF7E5FEE3E76F
:102F6000486200083812002000207047704710B5F2
:102F70000400FFF771FBC31720606360200010BDE1
:102F800070470000C3010448C0188378013307224A
:102F9000134083707047C0464011002070B5040094
:102FA0000D1E09D0E40106480019293005700021E2
:102FB0000820FFF7D9FF70BDFFF7E4FFF2E7C04636
:102FC0004011002010B582B00400C201224B9B18B2
:102FD00000229A7020325A711B790C3BDBB2012B14
:102FE00009D802011D4B9B189B685B690221984719
:102FF0002000FFF7C5FFE301174A9B5C002B1AD0A6
:103000002000FFF7BDFF6846FFF7B1FF144A002319
:103010000098019912184B41E4010F490C19A26163
:10302000E36100220023226163610023E371103316
:10303000237102B010BD002200212000FFF796FF8F
:10304000E401054B1C190022002322616361002367
:10305000E37104332371ECE740110020486200085B
:10306000C0980B00F0B5CE46474680B583B004004B
:10307000FFF786FF22013C4B9B189B681B682000D2
:103080009847002805D1394B002B02D0200000E0E2
:1030900000BF00285CD00122354B1A7000280AD1ED
:1030A0002201314B9B189B689B6B002B03D001AA1C
:1030B0000021200098472F4B9846E301994645464A
:1030C0004D440026AE602201274B9B189F680021CB
:1030D00020007B6A984743464A46D6542B00483323
:1030E0001E70234B1B782A7900200021286169611A
:1030F000EE712B71934219D0022A2BD00E2A2CD0BC
:103100000E2B01D0022B11D1002200212000FFF74D
:103110002DFFE301174A9B5C012B21D02201124BAA
:103120009B189B685B6A00212000984700212000C3
:103130003B6998477B6902212000984700220021C3
:103140002000FFF713FF03B00CBC90469946F0BD7A
:103150000222A1E70E2BD1D1E8E7022BD0D1E5E77F
:103160002000FFF70DFFD9E74862000800000000CB
:10317000C0110020401100208300181882000E4B5F
:103180009B189868002805D000290AD002290ADD7A
:10319000002005E0012908D0022908D0032908D021
:1031A00070470120FCE70220FAE70520F8E7062037
:1031B000F6E70720F4E7C046C4110020030B072000
:1031C00018408000023070470220704700B583B07D
:1031D00001AA4121FFF76EFE002804D1019B9B0646
:1031E00002D5012000E0002003B000BD10B502228E
:1031F0000C21FFF749FE10BD10B504220721FFF78F
:1032000043FE10BD10B584B0040003AA4221FFF7AD
:1032100051FE02AA3E212000FFF74CFE01AA3F21E9
:103220002000FFF747FEA3001B199A00234B9B18B1
:10323000DB68002B03D00123039A9A430392039B7C
:103240009B0718D4029B5B071AD4029BDB061CD495
:10325000029B1B071ED4029BDB0723D4019BDB07C9
:1032600007D5A3001B199A00144B9B18DB68002B91
:103270001FD004B010BD02212000FFF78FFEE1E750
:1032800000212000FFF78AFEDFE702212000FFF780
:1032900085FEDDE72000FFF7A9FF00212000FFF7F2
:1032A0007DFED8E72000FFF7A1FF2000FFF78AFE90
:1032B000D4E72000FFF7A0FFDBE7C046C4110020E1
:1032C00010B582B0040001AA0621FFF7F3FD4022E9
:1032D000019B1A43019206212000FFF7D5FD02B0A1
:1032E00010BD30B583B004000D0001AA0321FFF723
:1032F000E1FD002D0AD10423019A9A430192019A1B
:1033000003212000FFF7C0FD03B030BD0423019A64
:1033100013430193F3E7000030B583B004000D00C0
:1033200083001B189A00294B9B18D96001AA02211F
:10333000FFF7C0FD0423019A9A4304339A43019294
:10334000002D2FD0A3001B199900204BCB58002B28
:1033500003D0012B1AD0012016E004231A43019256
:10336000019A02212000FFF78FFD01AA0A21200007
:10337000FFF7A0FD00280DD02000FFF73DFF29003A
:103380002000FFF7AEFF002003B030BD08231A4332
:103390000192E5E70122019B1A430A212000FFF771
:1033A00073FDE9E702212000FFF76EFD01AA0A2163
:1033B0002000FFF77FFD0028E1D10123019A9A4305
:1033C0000A212000FFF760FDD9E7C046C4110020A4
:1033D00070B582B004000E00150001AA0321FFF7AA
:1033E00069FD8023019A9A431300102293430193AD
:1033F000002E02D0703213430193002D03D010230E
:10340000019A13430193019A03212000FFF73CFD29
:10341000002002B070BD000010B582B0040083002F
:103420001B189A000F4B9B18596000290AD00D4BAE
:10343000D15802010C4B9B189B689B699847002050
:1034400002B010BD01AA0221FFF734FD1023019A3A
:103450009A4310339A43019202212000FFF714FD92
:10346000EDE7C046C41100204862000830B583B0C3
:1034700004000D0001AA0221FFF71CFD1023019A90
:103480009A431300202293430193A2001219910042
:10349000204A52185268002A04D0002D2ED0102243
:1034A000134301930423019A9A4313000822934380
:1034B000002D27D013430193019A02212000FFF72A
:1034C000E3FC01AA03212000FFF7F4FC0123019A89
:1034D0009A43130002229343002D17D10122134374
:1034E0000193019A03212000FFF7CEFCA3001C19D1
:1034F000A300084A9D50002003B030BD2022134392
:103500000193CFE7042213430193D5E713430193BB
:10351000E7E7C046C411002030B583B0040002299B
:1035200030D0032955D0012901D0022026E001AA7C
:103530000131FFF7BFFCF323019A9A431300C02225
:1035400013430193A20012199100354A5218526890
:10355000002A06D0324A8A58002A11D0102213437A
:103560000193019A02212000FFF78EFCA3001C1991
:10357000A2002B4B9B1801229A60002003B030BDA3
:103580002022ECE701AA0821FFF794FC0125019A0B
:10359000AA43019208212000FFF776FC01AA02212C
:1035A0002000FFF787FC8023019A9A43403B9A430F
:1035B0002A433E3B1A43019202212000FFF764FC9C
:1035C000A3001C19A200164B9B1800229A60002031
:1035D000D4E701AA0821FFF76DFC0125019AAA434F
:1035E000019208212000FFF74FFC01AA02212000D0
:1035F000FFF760FC4023019A9A4340339A43AA4361
:103600007E3B9A43019202212000FFF73DFCA3007C
:103610001C19A200024B9B1800229A600020ADE703
:10362000C411002030B583B004000D0001AA0621AA
:10363000FFF740FC00281ED10C23019A9A43130087
:10364000012D07D0022D18D004221343019304202A
:10365000262504E008221343019309202625A20011
:1036600012199100084B5B181D745874019A0621B9
:103670002000FFF709FC03B030BD0C221343019377
:1036800013203D25EBE7C046C411002030B583B0C0
:1036900004002B4B82001018810001204042C850CA
:1036A0005B1826221A74223A5A74033A0C2120001D
:1036B000FFF7EAFB01AA09212000FFF7FBFB01222B
:1036C000019B1A4306231A43019209212000FFF7A8
:1036D000DBFBE4230193E4220A212000FFF7D4FB63
:1036E000E2230193E2220E212000FFF7CDFBFE230F
:1036F0000193FE220F212000FFF7C6FB01AA06213D
:103700002000FFF7D7FB2023019A9A43019206215C
:103710002000FFF7B9FB22010A4B9B189D6800218E
:103720002000AB699847EB690021200098470F22E1
:103730000B212000FFF7A8FB002003B030BDC046DE
:10374000C411002048620008F0B585B003900D0058
:1037500016001F000A9C0800FFF730FD1F230340DE
:1037600080221343611C3B55A21C7D542B12033451
:10377000BB54851E38192A00310002F015F964196E
:10378000631CFF213955A11C1420F854E31CEA30B6
:103790007854221DA121F95403230193002300939F
:1037A00039000398FFF7A8FB05B0F0BDF0B58FB066
:1037B00004000D0016001F00FFF782FD052D17D035
:1037C000072D24D0002D01D002200FE004AB4322AE
:1037D0001A70313A5A709A70DA7001321A710E3AD0
:1037E00000923A0031002000FFF7AEFF0FB0F0BDAD
:1037F00003AA09212000FFF75DFB4022039B1A4327
:10380000039209212000FFF73FFB0020EEE703AA07
:1038100007212000FFF74EFB1025039A2A4303924D
:1038200007212000FFF730FB03AA06212000FFF745
:1038300041FB0122039B1A43039206212000FFF75C
:1038400023FB03AA07212000FFF734FB039AAA43B6
:10385000039207212000FFF717FB0020C6E7F0B511
:103860008DB0029003911500FFF7B0FC00284AD1FB
:1038700004AC432323700127019700230093012206
:1038800021000298FFF738FB0600019703230093FD
:103890002300002200210298FFF72EFB0643370089
:1038A0006378A07800021843286080B2FFF786FC96
:1038B000861E022301930230009023000022002183
:1038C000029C2000FFF718FB07430CD12B680F2246
:1038D0001A40012A07D11B135B0704D12000FFF710
:1038E00075FC0028C4D0002F0ED12A680F23134086
:1038F000012B02D11213520709D0320004A90398F8
:1039000002F052F800E0012738000DB0F0BD1F00B2
:10391000FAE7000070B582B004000D0001AA022190
:10392000FFF7C8FA019E0C2332009A431300042DBE
:1039300027D0802213430193019A2A430192022146
:103940002000FFF7A1FAA3001B199A001B4B9B183C
:103950001A7C04212000FFF797FA0120FFF74BF8AB
:1039600001AA40212000FFF7A5FA019B9B060CD578
:103970000025320002212000FFF786FA280002B05D
:1039800070BD402213430193D6E7A3001B199A0090
:103990000A4B9B185A7C04212000FFF775FA01207E
:1039A000FFF729F801AA40212000FFF783FA019BC5
:1039B0009B0601D40125DCE70225DAE7C4110020CB
:1039C00070B504000E00150083001B189A000E4B02
:1039D0009B185B68002B0DD00B4BD358002B04D0E9
:1039E0000821FFF797FF286070BD0421FFF792FFC1
:1039F0003060F9E70421FFF78DFF306008212000D7
:103A0000FFF788FF2860EFE7C4110020F0B5D64625
:103A10004F464646C0B586B001908946904605AAF5
:103A20000221FFF747FA059A0426164000D0012626
:103A30000825154000D001250827BA4304239A46DB
:103A40001A4305920221019C2000FFF71DFA012074
:103A5000FEF7D1FF04AA402101942000FFF72AFAC3
:103A60000324049B2340049305AA02210198FFF735
:103A700021FA059A53469A433A4305920221019F3F
:103A80003800FFF701FA0120FEF7B5FF03AA402135
:103A900001973800FFF70EFA039B23401F000393A2
:103AA0000499019C2000FFF767FB4B461860390022
:103AB0002000FFF761FB4346186005AA02212000A1
:103AC000FFF7F8F9002E14D00423059A1343059349
:103AD000002D13D10823059A9A430592059A0221D5
:103AE0000198FFF7D1F906B01CBC90469946A24652
:103AF000F0BD0423059A9A430592E9E70823059A45
:103B000013430593EAE7000010B583001B189C00DF
:103B1000054B1B199B68002B03D1FFF777FF002093
:103B200010BDFFF74DFFFAE7C411002070B5041E69
:103B300058D0EA23FF33C35C002B05D0EA23FF33C0
:103B40000322E254002218E0E933FF330022C2547A
:103B5000FEF782FFF2E7D100891A8B00E318190003
:103B600029310120087001390A7018002B3000211A
:103B7000017059639963D963013260689042EAD851
:103B8000002214E0D100891A8B00E3181D000A35C9
:103B9000FF3500212970013D2A7003352970093550
:103BA0002960043529601D33FF33196001329042CA
:103BB000E8D8402301222168CA5200222168CA5253
:103BC0004421206842520C3120684252064A216842
:103BD000CA5200221C3BE2540122EA23FF33E25482
:103BE000002070BD0120FCE700BFFFFF01685822E4
:103BF0008B5A034803439BB28B5200207047C04648
:103C00000080FFFFF4235B00C35C012B13D0F4237F
:103C10005B000122C25400290AD19D3BFF3B7F3249
:103C20000168CA52F4235B000022C254002070478E
:103C30002423C154F6E70220F9E70000F0B54DB2A5
:103C4000002D65DB7F240C40E600361BB4000934F0
:103C5000FF3404197F2631402170ED0F6570E2605A
:103C6000E370F4235B00C35C012B00D175E1F42306
:103C70005B000122C254E378012B00D174E0002BD9
:103C80004ED0022B59D0032B61D0227893000168CB
:103C90008C4663441988B24D29400A43B1490A430E
:103CA0001A80A37A002B00D0B5E06378002B00D1F6
:103CB00067E0A28805685023EB5A2178C9005B1899
:103CC0005B198021C9008C46634401218A431A8014
:103CD00023789B000268944663441A88510604D5F1
:103CE0009F490A40A0490A431A802278920003683B
:103CF0009C46624413889D490B4020214B409949C2
:103D00000B431380F4235B000022C2540020F0BD5B
:103D10007F240C40E600361BB4002834041999E7D0
:103D200023789B000268944663441A8890491140A6
:103D3000802292000A431A80A7E723789B0002683A
:103D4000944663441A888A490A401A809DE723787A
:103D50009B000268944663441A8885491140C0223A
:103D6000D2000A431A8090E723789B0002689446A9
:103D700063441A887E4911408022D2000A431A8087
:103D800083E7A28805685026AB5B2178C9005B18E1
:103D90005B1978498C46634401218A431A80016883
:103DA0008B5B2278D2009B185B18734A944663445D
:103DB000E1683E2926D94A0992B2C90601D1013AE1
:103DC00092B2920292B26D490A431A8023789B0004
:103DD0000268944663441A88510404D560490A4035
:103DE00067490A431A8023789B000268944663441B
:103DF0001988644A1140C02292015140594A0A432D
:103E00001A807FE74A0892B2C90701D5013292B2FF
:103E100092021A80DAE723789B0002689446634492
:103E20001A8859491140594A0A431A80E28805689C
:103E30005027EB5B2178C9005B185B198021C90012
:103E40008C4663440126B2431A8022890568EB5BE5
:103E50002178C9005B185B1946498C466344B2431C
:103E60001A806378002B3DD123789B00026894462A
:103E700063441A88510404D539490A4040490A4329
:103E80001A8023789B000268944663441A8851067E
:103E900004D533490A4034490A431A8023789B00E9
:103EA0000268944663441A882D4911402E4A0A43F9
:103EB0001A802178890003689C4661440B88314A46
:103EC0001A40C0239B015340264A13430B8023789A
:103ED0009B0001688C4663441988244C21400A43A6
:103EE0001A800FE723789B000268944663441A887F
:103EF000510404D51A490A4021490A431A802378FB
:103F00009B000268944663441A88510604D51449FC
:103F10000A4015490A431A8023789B000268944698
:103F200063441A880E491140154A0A431A802178C1
:103F3000890003689C4661440B880C4A1340094A77
:103F400013430B8023789B0001688C4663441988D7
:103F50000C4C21400A431A80D4E60220D7E6C04622
:103F60000F0F00008080FFFFC080FFFFBF8FFFFFAB
:103F70008F89FFFF04040000060400000080FFFF9B
:103F800080C0FFFF8FBFFFFF0F0E00008081FFFF8B
:103F900010B54AB2002A3ADB7F230B40DC00E41A5A
:103FA000A3000933FF33C3187F2421401970D20FB7
:103FB0005A70F4225200825C012A00D1C1E0F4223E
:103FC0005200012181549A7A002A41D15A78002A5C
:103FD00025D01A78920001688C46624411884C06FC
:103FE00004D5594C2140594C214311801B789B002A
:103FF0000268944663441A8855491140554A0A4359
:104000001A80F4235B000022C254002010BD7F23DD
:104010000B40DC00E41AA3002833C318C4E71A7865
:10402000920001688C46624411884C0404D5464CC9
:104030002140494C214311801B789B000268944623
:1040400063441A8845491140424A0A431A80D8E716
:104050005A78002A3AD11A78920001688C46624454
:1040600011884C0404D5384C21403B4C214311802D
:104070001A78920001688C46624411884C0604D577
:10408000314C2140314C214311801A789200016853
:104090008C46624411882C4C0C402C4921431180E1
:1040A0001C78A40002689446644422882B490A4084
:1040B00028490A4322801B789B0002689446634487
:1040C0001A88234C2240114319809AE71A789200EB
:1040D00001688C46624411884C0404D51A4C214076
:1040E0001D4C214311801A78920001688C4662446D
:1040F00011884C0604D5144C2140144C21431180E6
:104100001A78920001688C46624411880E4C0C406B
:104110001149214311801C78A4000268944664442C
:1041200022880B490A400B490A4322801B789B00D6
:104130000268944663441A88084C2240114319804F
:104140005FE7022062E7C0460F0F0000C080FFFF5C
:10415000BF8FFFFF8080FFFF80C0FFFF8FBFFFFF8B
:1041600070B57F242140CD006D1AAC0004192500E4
:104170001935FF352A6022001D32FF3213600835E1
:1041800000222A60173D2A7022000932FF32117086
:104190001534FF342268934240D9CD006D1AAC002B
:1041A00004191D34FF349B1A2360CC00641AA30049
:1041B0001C00C3181333FF331B78002B41D1056853
:1041C0005033EB5A04190934FF342478E4001B19E6
:1041D0005B195E4CA44663443E2A29D95409A4B213
:1041E000D20601D1013CA4B2A402A4B2584A14439D
:1041F0001C800368CA00511A8A0080180930FF30F9
:10420000027892009B181988524A1140C0229201EC
:104210005140514A0A431A80002070BDCC00641AF4
:10422000A20082181D32FF32002414601A00BCE77D
:104230005408A4B2D20701D50134A4B2A4021C8050
:10424000D7E7CC00641AA3001C00C3180A33FF335D
:104250001B78002B23D105685033EB5A041909341D
:10426000FF342478E4001B195B193C4CA4466344DA
:104270003E2A0BD95409A4B2D50601D1013CA4B2FF
:10428000A402A4B2324D2C431C800AE05408A4B20C
:10429000D50701D50134A4B2A4021C8001E0012B92
:1042A00024D0CC00641AA3001C00C3180A33FF33C7
:1042B0001B78002B35D105685033EB5A04190934AB
:1042C000FF342478E4001B195B19204CA446634496
:1042D0003E2A1DD95409A4B2D20601D1013CA4B290
:1042E000A402A4B21A4A14431C8082E705684F3323
:1042F000EB5ACE00761AB40004190934FF3424783E
:10430000E4001B195B19154CA44663441A80C8E7E6
:104310005408A4B2D20701D50134A4B2A4021C806F
:1043200067E7012B00D064E705684F33EB5ACE00F6
:10433000761AB40004190934FF342478E4001B19F8
:104340005B19024CA44663441A8052E7060400003D
:104350000080FFFF8FBFFFFF8080FFFF020400008F
:104360007F231940CB00591A8B00C0182130FF3031
:104370000088704710B5F4235B00C35C012B4DD05F
:10438000F4235B000122C2544CB2002C20DBCA0093
:10439000521A93000933FF33C31801229A707E32F8
:1043A00011401970E40F5C7000291AD1890003686C
:1043B0009C4661440A881A4B1A401A4B5A401A4BC1
:1043C00013430B80F4235B000022C254002010BD75
:1043D0006A3BFF3B0B40DA00D21A93002833C31824
:1043E000DBE7002C0CD0890003689C4661440B88F5
:1043F0000E4A1340102253400B4A13430B80E1E74F
:10440000890003689C4661440A88094B1A4080234E
:104410005B015A40044B13430B80D3E70220D6E7DD
:10442000BFBFFFFF101000008080FFFFBF8FFFFFA6
:104430008FBFFFFF10B54AB2002A38DBCC00641AE8
:10444000A3000933FF33C31800249C707F3421403C
:104450001970D20F5A70F4225200825C012A4AD09D
:10446000F4225200012181545A78002A27D01A7868
:10447000920001688C46624411884C0604D51F4C9A
:1044800021401F4C214311801A78920003689C46FA
:10449000624413881B490B4030214B401A490B439F
:1044A0001380F4235B000022C254002010BD7F2340
:1044B0000B40DC00E41AA3002833C318C4E71A78C1
:1044C000920001688C46624411884C0404D50B4C60
:1044D00021400E4C214311801B789B0002689446BA
:1044E000634419880A4A1140C02292015140064A89
:1044F0000A431A80D5E70220D8E7C0460F0F000014
:10450000C080FFFFBF8FFFFF8080FFFF80C0FFFFE5
:104510008FBFFFFF10B501335B0812188020C00069
:104520008446624407E008784C78240204431480EF
:104530000231013B0232002BF5D110BDF8B5050068
:104540007F240C40E000001B810069188A63CB6364
:1045500000220A640A00293201201070013A147006
:104560004F6BBB4233D9DB1BCB63E200121B9300C2
:104570001A00EB1832331B78002B30D02868E20089
:10458000121B9300EB1828331B789A00825A5206AC
:1045900074D5E600361BB200AA1829321278002A18
:1045A0003BD15032825ADB00D3181818614B9C461D
:1045B00060443E2F28D97B099BB2FA0601D1013B0A
:1045C0009BB29B029BB25C4A1343038027E0E1004D
:1045D000091B8A00AA180021D1631F00C5E7BFB2DA
:1045E000AE18B28D3B00B16B2868FFF793FF2A68C5
:1045F0005023D35A28363178C9005B189B184F4A8C
:10460000944663441F8082E07B089BB2FA0701D581
:1046100001339BB29B02038001E0012A24D0E20017
:10462000121B9300EB181A8EBBB2E100091B8E001F
:10463000AE19B16B2868FFF76DFF29363378002B70
:1046400055D0012B63D1E200121B9300EB182833E5
:104650001B789B002A68944663441A8838491140A5
:10466000384A0A431A8052E04F32825ADB00D3188C
:104670001818304B9C4660440780D0E7E600361B94
:10468000B200AA1829321278002A1ED15032825A5A
:10469000DB00D3181818294B9C4660443E2F0BD9D9
:1046A0007B099BB2FA0601D1013B9BB29B029BB2F4
:1046B000214A134303800AE07B089BB2FA0701D525
:1046C00001339BB29B02038001E0012A05D0E20086
:1046D000121B9300EB18DA8DA6E74F32825ADB00EB
:1046E000D3181818154B9C4660440780EFE7E2008A
:1046F000121B9300EB1828331B789B002A68944602
:1047000063441A880E4911400F4A0A431A802A68E6
:10471000E1000C1BA300ED1828352B789B00D21864
:1047200013880A490B4030214B4009490B43138041
:104730000020F8BD060400000080FFFF0204000016
:104740000F0F000080C0FFFFC080FFFFBF8FFFFF83
:104750008080FFFF30B55D0812188020C0008446BD
:10476000624406E014880C70240A4C70013D023249
:104770000231002DF6D1DB0701D513880B7030BD57
:10478000F0B583B0050001AB00221A8028684423ED
:10479000C35A9BB26A46D3801BB2002B00DB39E2BE
:1047A0006B46DC880F231C4000D0B5E06B46063317
:1047B0001B88DB064BD5028801AB1A801B881B05C2
:1047C00075D401AB1B881BB2002BDFDA0388CA4A01
:1047D0001340038028685023C35A84225200AA5CE5
:1047E000D2009B181B18C54A944663441B889B053E
:1047F0009B0D2A000932FF329361002B00D077E035
:1048000000212800FEF752F92B6850229A5A9A1874
:10481000BA4B9C4662442B000933FF33D9683E29CA
:1048200071D94B099BB2C90601D1013B9BB29B02D6
:104830009BB2B3490B43138029680A88B14B1A40D5
:10484000C0239B015A40B04B13430B809EE7038863
:10485000AE4A1340038029685023CB5A2822AA5C11
:10486000D2009B185B18AA4A944663441B889B0598
:104870009B0D2B64AA6B94466344AB630021280014
:10488000FEF723F92423EB5C002B00D17EE7EB6BD2
:10489000002B00D07AE72422AB5C802149420B43F5
:1048A000DBB2CC31286843520023AB546EE750236F
:1048B000C35A84225200AA5CD2009B181B188F4A4C
:1048C000944663441B889B059B0D2A000932FF32E6
:1048D00093612900ED31FF319288FFF73BFF2A6891
:1048E000138885490B4013802800FEF7D5F84DE763
:1048F000140092882169FFF72DFF2369A26994466D
:10490000634423617CE74B089BB2C90701D501339F
:104910009BB29B0213808FE7A700C019028801ABEE
:104920001A801B881BB2002B31DB01AB1B881B06D6
:1049300000D42BE72B689C4667443B88734A13409E
:104940003B80E200121B93001A00EB1832331B78F5
:10495000002B00D0E2E028685033C35AAA18110097
:1049600028310978C9005B181B1869498C466344D3
:104970001B889B059B0D136400D1FDE0E200121B18
:10498000910069188A8D896BFFF7C4FDF4E05A4BDA
:104990001A400280E200121B93001A00EB18133336
:1049A000FF331B78002B1DD128685033C35A1100E8
:1049B000AA180932FF321278D2009B181B184F4AEE
:1049C000944663441E88B605B60D34D06B181A00A1
:1049D0000D32FF3212881933FF3319683300FFF7A5
:1049E000B9FE28E02868E200121B9300EB18093397
:1049F000FF331B789A00825A520456D55022825AAD
:104A0000DB00D3181B18424A944663441E88B6053F
:104A1000B60D3BD1E200121B9300EB180933FF33B4
:104A20001B789B002A68944663441A8839491140D0
:104A3000394A0A431A803100E200121B9300EB1836
:104A400018002130FF300268921902601A001932F2
:104A5000FF3210688446664416601D33FF331B68BE
:104A6000002B08D0E200121B900028181530FF30F0
:104A70000268914234D2E200121B9300EB18093312
:104A8000FF3319782800FEF711F84EE7E200121BF9
:104A90009300EB181A000F32FF3212881933FF33DC
:104AA00019683300FFF756FEB4E75022825ADB0044
:104AB000D3181B18114A944663441E88B605B60DD8
:104AC000A8D0E200121B9300EB181A001132FF323B
:104AD00012881933FF3319683300FFF73BFE99E75B
:104AE000E100091B8A00AA180932FF32117832004E
:104AF0002800FFF735FB18E78F0F000006040000C1
:104B00000080FFFF8FBFFFFF8080FFFF0F8FFFFF41
:104B1000020400000F0F0000C080FFFF2868E200C1
:104B2000121B9300EB1828331B789A00825A520606
:104B30004DD55022825ADB00D3181B18374A9446B1
:104B400063441B889B059B0DE100091B8A00110033
:104B5000AA181364002B34D1E200121B9300EB1847
:104B600028331B789B002A68944663441A882C4992
:104B700011402C4A0A431A8028685023C25AE10087
:104B8000091B8B00EB18190028310978C90052184D
:104B9000121822498C46624412889205920D1A64BA
:104BA000996B8C4662449A63DB6B002B28D1E3003F
:104BB0001C1BA300EB18283319782800FDF785FF8C
:104BC000E4E56918CA8D896BFFF7A4FCC4E750229D
:104BD000825ADB00D3181B18134A944663441B887F
:104BE0009B059B0DE100091B8A001100AA181364A4
:104BF000002BB1D069180A8E896BFFF78BFCABE7ED
:104C0000E1000C1BA1006918283109782800FFF782
:104C100095FCBBE5002003B0F0BDC04602040000D7
:104C20000F0F000080C0FFFF0604000070B50400F5
:104C300044230268D35A1BB2002B46DB236844226C
:104C40009A5A520544D4236844229A5A520404D5ED
:104C500044215A5A344802405A52236844229A5AEC
:104C6000920404D544215A5A304802405A522368CB
:104C700044229A5AD20438D4236844229A5A1205FC
:104C800013D54422995A2A4801409952206840235A
:104C9000C15A08252943C1522068C15A0425294315
:104CA000C15223689B5ADB0431D5236844229A5AA7
:104CB000920530D4236844229A5AD20504D544215F
:104CC0005A5A1C4802405A5270BDFFF759FDB5E7C9
:104CD00044215A5A184802405A522000FDF709FF51
:104CE00000212000FEF78EFFADE74022995A0420F4
:104CF00081439952114B21688B522000FDF718FF18
:104D0000216844228B5A0E4803408B52B4E720009E
:104D1000FDF7FCFEC9E744215A5A0A4802405A529C
:104D20002000FDF7DFFEC5E7FFBFFFFFFFDFFFFF4E
:104D3000FFF7FFFFFFFEFFFFFFFBFFFF00BDFFFFD1
:104D4000FFEFFFFFFFFDFFFF10B50C060FD57F241F
:104D50002140CC00611A8C0028340019002A0DD0A3
:104D600001228272C3801B0C0381002010BDCC0085
:104D7000611A8C000934FF340019EFE782728380D6
:104D8000F3E710B5002816D085239B00C358002BED
:104D900003D085239B000024C450002902D0842323
:104DA0009B00C150FE235B000121C1540270FDF73E
:104DB000D5FE002010BD0220FCE7002904D0852389
:104DC0009B00C150002070470220FCE710B5FDF7A2
:104DD00009FF002010BD10B585239B00C358002B90
:104DE00007D01B689847002801D1002010BD022081
:104DF000FCE70220FAE710B585239B00C3585B68E7
:104E00009847002010BD000070B5040082239B006D
:104E1000C518280000F02CF9FA235B000122E250AB
:104E2000124BE25A163BE2501033E15CEA3BFF3B87
:104E30000B40012B0FD0002B07D0022B10D07F236B
:104E400099432000FDF701FF03E02900200000F056
:104E5000B3FA002070BD2900200000F0D1FAF8E775
:104E60002900200000F0EBFAF3E7C0460E02000034
:104E700010B504001300002929D1FA2252008258EB
:104E8000032A01D0002010BD421DFF329168D26874
:104E900091420FD885239B00C3581B69002B05D076
:104EA000FE225200825C032A00D19847200000F0C5
:104EB000AEFBE7E7891A0530FF3081608A4200D9EE
:104EC0000A0092B21900200000F099FBDAE785236E
:104ED0009B00C3589B69002BD4D0FE225200825CF9
:104EE000032ACFD19847CDE770B5040013000029FD
:104EF0004ED1FA2252008258022A06D080239B000B
:104F0000E35C012B3FD0002070BDC269056AAA4254
:104F10001ED8866929003000FBF77CF9002906D1EC
:104F2000B54204D8FC235B00E3589E421DD3852381
:104F30009B00E358DB68002B06D0FE225200A25CE7
:104F4000032A01D120009847200000F06CFBD5E730
:104F5000521BC26192B2190000F039FB00230022FB
:104F600000212000FDF7CBFEC8E70022200000F062
:104F70002EFBFC235B000022E250002300212000D6
:104F8000FDF7BDFEBAE780239B000022E254BAE79A
:104F900085239B00C3585B69002BB4D0FE225200CE
:104FA000825C032AAFD19847ADE770B50400402377
:104FB00000220021FDF726FE402588235B00E550F6
:104FC000D03B002280212000FDF71CFE2562FE233D
:104FD0005B000122E2541C33E358002B06D08523EA
:104FE0009B00E3585B68217920009847002070BD42
:104FF000017400207047FE235B00C15CFE22FF327B
:105000008154FA3AFF3AC25400207047FE23FF331E
:10501000C25C013BC2540020704710B5FE235B0008
:10502000C35C032B01D0002010BD85239B00C35817
:10503000DB69002BF7D09847F5E70300002002E07A
:105040000130C0B201331A78002AF9D1704710B587
:1050500004004B88012B0AD181239B000122C250FE
:105060001033C3589B689847200000F0D0FA10BD59
:105070000B7803704B7843708B78CA7812029B18B8
:1050800043800B794A7912029B1883808B79CA7905
:1050900012029B18C380704710B504008021FDF7F1
:1050A000D4FD00212000FDF7D0FD10BD30B583B048
:1050B00004000D004A88130A072B00D98EE09B00DC
:1050C0004F49CB589F4684239B00C3581B68007CE4
:1050D0006A46911D98476B4606331B88002B03D008
:1050E000EA88002A00D07EE003B030BD037C002BAC
:1050F00009D185239B00C3589B6A6A46901D984737
:1051000002234370E7E785239B00C358DB6A6A46A6
:10511000901D984702234370DDE7D2B2052A39D8A3
:105120009200384B9B589F4684239B00C3585B6872
:10513000007C6A46911D9847CDE784239B00C358A5
:105140009B68007C6A46911D9847C4E784239B00B6
:10515000C358DB68007C6A46911D9847BBE78423EF
:105160009B00C3581B69007C6A46911D9847B2E7B3
:1051700084239B00C3585B69007C6A46911D984755
:10518000A9E784239B00C3589B69007C6A46911D54
:105190009847A0E72900FFF77FFFA5E7037C002BD6
:1051A00007D185239B00C3585B6B6A46901D9847C7
:1051B00091E72900FFF770FF96E7037C002B09D1E8
:1051C00085239B00C3581B6B6A46901D9847072395
:1051D000437080E72900FFF75FFF85E72900200083
:1051E000FFF75AFF80E7191C934200D9111C8AB2BD
:1051F0006B46D9800100200000F0DBF974E7C0465F
:10520000FC6200081C63000870B504008B88002B4A
:1052100022D1CB88002B1FD18B787F251D40FE2308
:105220005B00C35C032B0FD0FF235B00C554290038
:10523000FDF745FD200000F0EAF9002D07D0FE2320
:105240005B000222E2540AE0FFF726FF07E0FE239C
:105250005B000122E25402E02000FFF71DFF70BD59
:1052600070B504000D008978284B197001290AD8FF
:10527000FE235B00C35C022B09D0032B1ED0290048
:10528000FFF70AFF02E02900FFF706FF70BD0029C3
:1052900011D04160FE235B000322C254FFF79BFD47
:1052A000022803D0200000F0B2F9EFE72900200027
:1052B000FFF7F2FEEAE700F0AAF9E7E7002911D0CC
:1052C000436899421ED0D9B2FFF795FD0F4B19786C
:1052D00061602000FFF77FFD02280ED0200000F063
:1052E00096F9D3E7FE235B000222C2544160FFF728
:1052F00082FD200000F08BF9C8E729002000FFF7AD
:10530000CBFEC3E700F083F9C0E7C046D811002008
:1053100010B5CB88012B09D1FE235B00C35C022BA7
:1053200007D0032B0DD0FFF7B7FE01E0FFF7B4FE67
:1053300010BD0023836001000831012200F039F91B
:10534000F6E7011D012200F034F9F1E710B5FE2364
:105350005B00C35C023BDBB2012B0ED80123C360B0
:1053600081239B00C358002B01D00323C36001009D
:105370000C31022200F01DF910BDFFF78DFEFBE796
:1053800010B50400FE235B00C35C023BDBB2012BC3
:105390000ED84B88012B0AD181239B000022C250DA
:1053A0001033C3589B689847200000F030F910BDB7
:1053B000FFF772FEFBE7000010B54B78092B19D8F8
:1053C0009B000E4AD3589F46FFF770FE002010BD89
:1053D000FFF71AFFFAE7FFF743FFF7E7FFF798FF3A
:1053E000F4E7FFF7B3FFF1E7FFF731FEEEE7FFF772
:1053F000C7FFEBE7FFF750FEE8E7C046346300085D
:1054000070B504000D00FE235B00C35C032B13D1B9
:105410000B79012B0DD885239B00C3589B689847B7
:10542000EB88002B01D0002070BD200000F0EFF8C9
:10543000F9E7FFF731FEF6E7FFF72EFEF3E770B569
:1054400005000C008A88D1B2207860230340202B0D
:1054500008D1F533FF33EB589B68210028009847AB
:10546000002070BD6378012B2CD0002B52D0032B71
:10547000F6D1FA33FF33EB5C022B06D0032B0CD0B2
:1054800021002800FFF708FEEAE70029E8D080297C
:10549000E6D02800FDF7D9FBE2E76388002B06D1B0
:1054A000002904D0802902D02800FDF7CEFB8523F7
:1054B0009B00EB589B68210028009847280000F0CB
:1054C000A6F8CDE7FE235B00EB5C022B06D0032B96
:1054D0000CD021002800FFF7DFFDC1E70029BFD075
:1054E0008029BDD02800FDF7B0FBB9E76388002B09
:1054F000B6D14B0603D1280000F089F8B0E72800A8
:10550000FDF7B3FB85239B00EB589B682100280027
:105510009847F0E7FE235B00EB5C022B06D0032BE1
:105520000AD021002800FFF7B7FD99E74B0697D076
:105530002800FDF78AFB93E7130612D47F240C4062
:10554000103424012C1904342800FDF79EFB002898
:105550000ED00123236002222100280000F029F848
:105560007EE77F240C40013424012C190434EBE73E
:1055700000232360EFE770B504000D00160000283B
:1055800016D0FFF75AFD0130400080B230802870FD
:1055900003236B70013B08E001345A1CD2B2E9547A
:1055A0000233DBB2AA180021117021780029F3D14F
:1055B00070BD10B51300FA2252000224845083619A
:1055C000C3610A000021FDF78AFB002010BD10B561
:1055D00013000A000021FDF782FB002010BD10B56A
:1055E0001300FA22520003248450EC3A8350043210
:1055F00083500A000021FDF782FB002010BD10B58A
:1056000013000A000021FDF77AFB002010BD10B541
:10561000FA235B000422C250002300220021FDF780
:105620005EFB002010BD10B5FA235B000522C250BE
:10563000002300220021FDF762FB002010BD86231D
:105640009B00C358002B05D0852292000021995061
:10565000002070470220FCE710B586239B00C45849
:105660000433C358002B0DD080229200A05CFF2889
:1056700008D09B68044AA25C2100984780239B00C5
:10568000FF22E254002010BD0102000043230380EA
:10569000004870478400002043230380004870477F
:1056A000C8000020432303800048704718010020F1
:1056B0000A230380004870470C01002070B50400E5
:1056C0008626B6008559FDF72AFB83239B00E85008
:1056D000A359002B0BD087239B00E358DB68832260
:1056E0009200A918083AA8589847002070BD0220D7
:1056F000FCE7000070B505000C0086239B00C6582F
:105700000978B93BFF3B0B402AD0202B0AD1E28815
:10571000002A09D187239B00C3589B686078002228
:1057200021009847002070BD49B200290CDAFD33F2
:10573000FF33C3589B68607831009847E288310096
:105740002800FFF736FFEDE7627880239B00F254D4
:10575000E288074BF254E2883100FFF740FFE1E7AF
:1057600063780A2BDED101220249FFF722FFD9E735
:1057700001020000D911002070B504008121FDF75D
:1057800054FA01212000FDF750FA82212000FDF794
:105790004CFA86239B00E358002B0BD087239B00F9
:1057A000E3585B6898478625AD006059FDF7C2FA5B
:1057B00000236351002070BD70B50400037C002BF2
:1057C00034D18025AD002B0002228121FDF71AFA89
:1057D0002B00022201212000FDF714FA08230322E6
:1057E00082212000FDF70EFA87208000FDF79EFA47
:1057F000050086239B00E05000282DD00433E35899
:105800001B689847002385229200AB500432AB50AE
:10581000237C002B16D081239B00EA58C53BFF3B1D
:1058200001212000FDF76BFA002070BD4023022209
:105830008121FDF7E7F94023022201212000FDF735
:10584000E1F9CBE78033143AAA589B0001212000EC
:10585000FDF755FA0020E8E70120E6E7002904D02B
:1058600087239B00C150002070470220FCE786235D
:105870009B00C358822080001950842189005A500F
:105880000020704786239B00C258143BD150002053
:10589000704710B586239B00C258002A14D0043BE1
:1058A000D358002B01D0012010BD85239B0001217E
:1058B000D150043BD35A8221890052588839FF398C
:1058C000FDF70DFA0020EFE70220EDE710B5862383
:1058D0009B00C258002A16D0037C002B09D08123DC
:1058E0009B00D258C53BFF3B0121FDF708FA002081
:1058F00010BD80338121890052589B000121FDF7A2
:10590000FEF90020F4E70220F2E700000D4885468A
:105910000D480E490E4A002302E0D458C450043307
:10592000C4188C42F9D30B4A0B4C002301E01360DE
:105930000432A242FBD3FCF73FF900F011F8FAF76A
:105940006FFCFEE70040002000000020C0010020A6
:1059500098630008C001002044220020FEE70000F8
:1059600070B500260C4D0D4C641BA410A64209D145
:10597000002600F037FC0A4D0A4C641BA410A64216
:1059800005D170BDB300EB5898470136EEE7B30080
:10599000EB5898470136F2E79063000890630008DF
:1059A0009063000894630008002310B59A4200D168
:1059B00010BDCC5CC4540133F8E7030012189342C5
:1059C00000D1704719700133F9E700000EB400B53B
:1059D0000B499CB01DAB02900690079104910948B9
:1059E000094904CB0591006802A9019300F070F801
:1059F0000023029A13701CB008BC03B01847C046BD
:105A0000FFFFFF7F5C0100200802FFFFF0B58E68FA
:105A100085B007000C00039201939E423CD890236E
:105A20008A89DB001A4234D00325096923685B1A8E
:105A30000293636902985D43EB0F5D19019B6D1042
:105A400001331B18AB4200D91D00530532D5290084
:105A5000380000F019FB061E09D10C233B604023DF
:105A60000120A28940421343A38105B0F0BD029AF0
:105A70002169FFF799FFA389144A1A408023134331
:105A8000A381029B2661F61826606561019EED1ACE
:105A9000A560019B9E4200D9019E320003992068B7
:105AA00000F095FAA36800209B1BA36023689E1951
:105AB0002660DAE72A00380000F044FB061EE0D139
:105AC0002169380000F096FAC7E7C0467FFBFFFF68
:105AD000F0B5A1B003901D008B890F0016001B06C6
